:020000041000EA
:1000000000B5324B212058609868022188439860DF
:10001000D860186158612E4B002199600221596106
:100020000121F02299502B49196001219960352056
:1000300000F044F80222904214D00621196600F024
:1000400034F8196E01211966002018661A6600F04E
:100050002CF8196E196E196E052000F02FF8012189
:100060000842F9D1002199601B49196000215960AB
:100070001A491B48016001219960EB211966A021F2
:10008000196600F012F800219960164914480160C1
:100090000121996001BC002800D000471248134993
:1000A000086003C880F30888084703B5996A0420EC
:1000B0000142FBD001200142F8D103BD02B5186610
:1000C0001866FFF7F2FF186E186E02BD00000240BE
:1000D000000000180000070000035F00212200005C
:1000E000F4000018222000A00001001008ED00E03C
:1000F00000000000000000000000000074B24E7A12
:1001000000200420F7010010C3010010C5010010F9
:10011000C1010010C1010010C1010010C101001097
:10012000C1010010C1010010C1010010C701001081
:10013000C1010010C1010010C9010010CB01001065
:10014000CD010010CD010010CD010010CD01001037
:10015000CD010010CD010010CD010010CD01001027
:10016000CD010010CD010010CD010010CD01001017
:10017000CD010010CD010010CD010010CD01001007
:10018000CD010010CD010010CD010010CD010010F7
:10019000CD010010CD010010CD010010CD010010E7
:1001A000CD010010CD010010CD010010CD010010D7
:1001B000CD010010CD010010CD010010CD010010C7
:1001C00000BE00BE00BE00BE00BE00BEEFF3058054
:1001D000103800BEF2EB8871B03C0510D03C051021
:1001E0003402001090A31AE700201F49086006C8D7
:1001F00081F3088810471D48006800282FD10DA4FE
:100200000ECC002902D000F012F8F9E71849194A7B
:10021000002000E001C19142FCD1174988471749ED
:1002200088471749884700BEFDE701C901C29A42C5
:10023000FBD37047D03C0510C0000020702A00207E
:100240008066051000000420000004208066051070
:10025000001004200010042000000000704709482E
:1002600004F096F80047000008ED00E0000000D020
:10027000702A0020CC4E0020B52B0010210E00105B
:10028000E92C00105756000006005250ABB36053E3
:10029000087D041006005250861C0302187D0410CD
:1002A000060052505422A29D287D04100500525091
:1002B000DE65F46880660510F8B5C04610B5064CDA
:1002C0002378002B07D1054B002B02D0044800E017
:1002D00000BF0123237010BD782D00200000000016
:1002E00060790410044B10B5002B03D00349044877
:1002F00000E000BF10BDC046000000007C2D0020C3
:1003000060790410012A00D1016000207047C046C6
:10031000012A00D1016000207047C04610B50A686C
:100320000368101C984710BD012A03D0022A03D08D
:10033000002070470160FBE70B680360F8E7C046E8
:1003400010B53AF017FC05F06DF9C021890505F0EC
:100350001EF910BD10B53AF00DFC05F063F9C0218F
:10036000890505F014F910BD80231B069C4610B5C5
:10037000604405F079F904F0D5FB0022054B04F048
:10038000A5FA02000B000020024904F0A8FA04F0CC
:10039000BDFB10BD0000F03FF0B5D6464F464646C7
:1003A00004000D00C0B5814219D04B680F689A4611
:1003B000DE1B036899464A4683689B1A98469E420C
:1003C00012D84068821A964230D8BA453ED03200E0
:1003D0003900484647F0B4FA23689D196560E0BCCF
:1003E000BA46B146A846F0BD002E3BD01F4B9E42F8
:1003F0003AD8300005F0DEF92368050099464A46F0
:10040000A3689B1A9846BA4504D0320039002800E8
:1004100005F0CAF94B46002B03D04146484605F08B
:10042000D9F92560AD19A5606560D8E7002A0AD022
:100430003900484647F084FA236860689946C21A32
:100440006B682F689A46B918514503D135004D4461
:100450006560C4E753465A1A47F072FA23689D193B
:100460006560BCE70025CEE71AF012FAFCFFFF7FBB
:10047000F8B50F00002349683A6804008E1A03603B
:1004800043608360914216D00D4B9E4216D83000D7
:1004900005F090F90500AE19A660256065600ACFE9
:1004A0005E1A8B4203D03200280047F049FAAD199A
:1004B00020006560F8BD00260025ECE71AF0E8F999
:1004C000FCFFFF7FF0B54E46DE46574645460368C3
:1004D000E0B546680C00F11A891092464A0052189D
:1004E0009B461301D2181302D2181304D3189B0091
:1004F000624A5B18814683B0934200D1BBE0002B77
:1005000000D193E05A009046934200D9A3E05B46A5
:10051000E51A4346002B00D090E000939C465346DA
:100520001B6865442B60534652465B6891686B605C
:1005300053460022DB68AA60581AEA602A618B429F
:1005400000D18DE04E4B0190984200D991E005F02A
:1005500031F953469968DB6807005A1A9246019AA6
:10056000AF60BA18EF602A618B4203D05246380060
:1005700047F0E6F95744EF60A34500D177E05B46CA
:10058000009A596818689D6810605160D8681969A8
:1005900014339560D06011611432A342F1D123006D
:1005A0005A46143B9B1A9A08364B53439B009B08B0
:1005B00001339D00ED18009BAD009C466544143549
:1005C000A6421BD023002A001968116059685160A7
:1005D00099689160D968D160196914331161143236
:1005E000B342F1D11B1B143B264C9B0863439B0079
:1005F0009B0801339A00D3189B00ED185B46002B33
:1006000006D04B465A469B685846991A05F0E2F8C0
:100610004A46009B28C2434418004B46986003B0EA
:10062000F0BCBB46B246A946A046F0BD0133984691
:100630005B46E51A4346002B00D16EE70F4A934212
:1006400013D89A00D3189B009846404605F0B2F89C
:100650000300009062E75B46E51A0B4B9846F4E70F
:10066000002200279246019279E71300E9E7009DF6
:10067000A5E71AF00DF905481AF042F96666660614
:10068000FCFFFF7FCDCCCC0CF8FFFF7F607904101E
:10069000F8B557464E46DE464546E0B507000E1E05
:1006A00037D0416800680C1AA21053009B181D0136
:1006B0005B191D025B191D045D19AD00AB46BB68DB
:1006C00093449C465B46444AD31A984663465A1A5A
:1006D000921053009B181D01A9464B441D02A946C8
:1006E0004B441D04A9464B449B009B189E4216D8C0
:1006F0000B003000002201381A605A609A601A61BB
:10070000DA6014330028F6D1B3009E19B6008919B7
:100710007960F0BCBB46B246A946A046F8BDB045DC
:1007200057D333005E453AD35B449B453BD8002BFF
:1007300045D10023994698462300002234004344C3
:10074000013C1A605A609A601A61DA601433002C16
:10075000F6D14246030088420FD05C681D685460A1
:10076000DC681560A2469D681C6995605546143387
:10077000D560146114328B42EFD1002803D0634658
:10078000191A05F027F8434635003B604B465D4497
:10079000A8004019800040447860BB60B9E75B4620
:1007A0005B449B45C3D90D4B9946484605F002F87A
:1007B0008046BB6838689C467968C144BCE7064AF5
:1007C000934204D89A00D3189B009946EDE7130092
:1007D000F8E703481AF094F866666606F8FFFF7FAC
:1007E0007C790410F0B557464546DE464E46E0B5E6
:1007F00083B0050014001F000091002A30D08368E8
:100800000E00994643689A464B4652469B1A9B10E7
:10081000A34247D3531A99463F689B109C4226D265
:100820005346A4001B1B99465346CA4505D02200D7
:100830004946504647F084F86B6800991B196B6075
:10084000894505D04B465A1A5346981A47F078F80E
:10085000009B9C4664449C4202D080C6B442FCD1BA
:1008600003B0F0BCBB46B246A946A046F0BD504618
:10087000E21A9C4207D090005044824503D0534670
:1008800080C39842FCD1009B68609A457DD01900D6
:100890004A4647F055F86B684B446B6080C6B245DA
:1008A000FCD1DDE70368984653464246981A3A4B16
:1008B00080101B1A9C426BD82300844200D2030094
:1008C0001B18984237D84146009A521A1600002B3E
:1008D00053D193469A4601933300A40053443A6897
:1008E000191904C39942FCD1009EB0451AD05A464A
:1008F0004146504647F024F86A685C445444931BD0
:10090000B2422ED01A00200000991F0004F04CFFC4
:100910004346E419002B2CD153462B60019B6C609D
:10092000AB609DE743466A685C4400275444D31A91
:100930004245E7D1ECE74246009B9B1A1E00174B4D
:100940009946484604F036FF2B68824698464B4647
:10095000424653440193009B9B1A9B46AB689946C1
:10096000BAE74246E4184B46991A404604F032FF73
:10097000D2E74B464246991AF7E780229205934206
:1009800000D3054B9B009946DBE74844686067E766
:10099000034819F0B5FFC046FFFFFF1FFCFFFF7FB4
:1009A000987904100B00F0B54546DE4657464E4692
:1009B0001A680023E0B50C004968A5B001908D1AB3
:1009C000036043608360914200D111E2D74B9D42A6
:1009D00000D91BE2280004F0EDFE0600019B75190A
:1009E0001E605E609D60256863685A1B90469D424C
:1009F00003D02900300046F0A3FF019A46441300BB
:100A00000C330293002311005660D36053611361CD
:100A100093611362D3615362D3629362636824313A
:100A2000009303915B1B042B00D1E9E100239A465C
:100A3000BF4BA1469B4601239C46E24453469B0084
:100A40009846E9584544043D2B68002600251A00C5
:100A500000240E950F9600254A430C910D93109497
:100A60001E95002A00D06BE1B248189107905846B5
:100A7000199306901A921C921B92002B23D00025EA
:100A8000002920D000240C9B19000E9B69439C4632
:100A90000919069B890061440093002B00D1A1E154
:100AA000079B04A8009398472B0018991A9A4B4368
:100AB0001B199B0001340092D050A142E3D8199B2E
:100AC00001359D42DCD30E980D931A9B1B9C0E930F
:100AD0000F941C9B00240C910093109910930023F9
:100AE0001A931B941C9300280AD0091A04F072FE72
:100AF0001C9B1A980093191A002801D004F06AFE72
:100B0000069B002B03D004A9032208009847019EEE
:100B10007369346900939C4200D152E10C9B0F9998
:100B200023600D9B0E9A0093636000238F1AA360CD
:100B3000E3602361914200D150E17C4B9F4200D998
:100B400064E1380004F036FE05003669A560E56012
:100B50000E990F9BEF1927615F1A994203D03A0053
:100B6000280046F0EDFE3300019AED191433E560DC
:100B700013614B4642461B6800249A58002001230B
:100B800000210027149015911292139316941E972A
:100B9000002A00D0F2E01EAE1E9273600123664967
:100BA00008ADE9606549B260A9603261F260002772
:100BB000002A1ED00024129B1900149B79439C46E6
:100BC00009190093AB6889006144002B00D109E149
:100BD000EB68280098473B003268B16853431B1903
:100BE0009B000134C850A242E5D8736801379F4288
:100BF000DED314981393209B219C1493159433698E
:100C000000241699169300231292209321943361A5
:100C1000002809D0091A04F0DDFDB0683169091A0D
:100C2000002801D004F0D6FDAB68002B03D00322CE
:100C3000290028009847019EF36AB46A00939C42F9
:100C400000D1C4E0129B15992360139B149A009362
:100C5000636000238F1AA360E3602361914200D197
:100C6000C2E0324B9F4200D9D0E0380004F0A2FD30
:100C70000500B66AA560EF19E560159B2761149F12
:100C8000DA1B90469F4203D03900280046F058FEF8
:100C90003300019A45441433E5609362002F04D079
:100CA00016993800C91B04F095FD0E98002804D051
:100CB000109B191A009304F08DFD4B461D685B686C
:100CC0005A1B9210531E534500D9B4E6019BDD69AF
:100CD0009F69E81B801043001B1819015B1819025B
:100CE0005B1819045918890009188A4200D98FE045
:100CF00013D291008A189200BF18BD420DD03E0059
:100D0000B068002800D176E033691436191A04F06F
:100D100061FDAE42F4D1019BDF61019825B0F0BCCA
:100D2000BB46B246A946A046F0BDC046FCFFFF7FC9
:100D300005030010410300105503001011030010BB
:100D400000211EAB0EA8FFF74DFD0C9931480A009B
:100D5000079058460D9B06905A43189119931A9480
:100D60001C941B941E95002A00D186E600211EAB20
:100D70001AA8FFF737FD199B18997EE61EAE3300BF
:100D8000002114A8FFF72EFD139B129A1900224888
:100D900051430B9021481E9208AD7360B4603461DA
:100DA000F4601897A860002907D00A0018AB00214A
:100DB00020A8FFF717FD73681E9A002B00D0F6E6F7
:100DC00017E7210002980CAAFFF77CFBD1E621006F
:100DD000039812AAFFF776FB149F5FE7260000270F
:100DE0000025B3E619F00EFE26000027002541E796
:100DF00000250026F2E51436B54200D080E78AE7E8
:100E0000012101981830FFF743FC86E719F040FDF7
:100E1000511AF6E7410300105503001011030010AA
:100E2000F0B5DE46454657464E46E0B5B5B004F04F
:100E3000E9FE192000F0BAFAD02380223E4C1B06AE
:100E400092045A625A61220028AB23CA23C3126853
:100E500010201A6004F0AEFC28A91022050004F04E
:100E6000A3FC002200232292239322AB9A46002364
:100E700052461020936004F09DFC06005346103645
:100E80001022290022909E6004F08EFC53465146A9
:100E90005E6028A8FFF786FD2298002804D05346FC
:100EA0009B68191A04F096FC524610340BCC0BC206
:100EB00000250ACC0AC2002600241420129413959F
:100EC000149604F077FC0700142214375146149747
:100ED000129004F069FC12A915A81397FFF7C8FA3D
:100EE000289F1599169B3F6801935B1A08009A107A
:100EF000BA4227D0002803D01799091A04F06AFCD7
:100F0000D02480252F9950460C39FFF7B1FA0B4AAF
:100F10000B492406AD04906A63692B436361936AAD
:100F20001B1A8B42FBD9906AA3692B43A361936A76
:100F30001B1A8B42FBD9EEE7B07904100040054044
:100F40003F420F0001201D9000201E941F951C920F
:100F500020962290B34200D00FE2169B5A1A0193BA
:100F6000931006D000231E98CC58C45004339A42E4
:100F7000FAD12C9B01932B9B0293029A019B9342E3
:100F800000D101E200230B930C932E9B0B9C1800C5
:100F9000A4461D9B1C9A6044026043601EA9083051
:100FA0000192FFF7F9F9A4462B9B1D990193634425
:100FB0001A689946534650461A6059600023836068
:100FC0000361C360002302924A4308911893002AE8
:100FD00000D0A1E1002309930F930E93089B002BEF
:100FE00000D1C7E11C9A1E9B029905920D9300291E
:100FF0004AD09C4692000A9204936244002393468E
:1010000006930793099A069B94469B0063440393B7
:10101000002398460193059B002B00D15BE14B46D2
:101020001B6800249F004B469D683B005F469B4623
:10103000049E4544296801CE04F0A9FA011C201C35
:1010400004F08EFA5D44041CB742F3D1BB4642461D
:10105000039B9C5004229446019B029A0133019306
:10106000E0449342D7D111008C46069A0A99624413
:101070008C460692049A079B62440492089A0133B4
:101080000793E3449342BDD1029B52461C93089BB5
:1010900020991D93099B0D981E930E9B1F930F9BE8
:1010A000209300239360D360136100280AD0091AAB
:1010B00004F090FB534698681B69191A002801D068
:1010C00004F088FB319B1C991C000B9B1D989C46CF
:1010D0001C9A1D9B229223930023524613610022E7
:1010E0000023249225930A00002342436444019183
:1010F00002901893002A00D0F9E00023039309938B
:101100000893029B002B00D131E11E9F019A1C9B8A
:101110000797002A31D09B00069323680493A368A5
:1011200005939300984600239B4699464B46049DA1
:1011300000245D43059BAD009C465B469E00039BDF
:1011400065449C46664433002E0045469846315916
:10115000385904F005FA434618510434AC42F6D12C
:1011600001239C46069BE1449C46019B67449C46A8
:10117000029BA846E3449945D8D1019B52461C9353
:10118000029B20991D93039B07981E93089B1F9316
:10119000099B209300239360D360136100280AD039
:1011A000091A04F017FB534698681B69191A00289E
:1011B00001D004F00FFB5246744B1C991893744BEA
:1011C00050461B93734B1A931D9B0AC200228260E8
:1011D0000261C2601A0000204A431190002A7CD1AB
:1011E000002B25D00025002922D000241C9B1900AB
:1011F0001E9B69439C4609191A9B8900614401930F
:10120000002B00D1B1E01B9B18A8019398475346CF
:10121000196852460B006B4392681B199B000134FE
:10122000D050A142E2D853465B6801359D42DAD3E3
:101230001E981D93249B259C1E931F9453461B6947
:10124000002452461C912099209300232493259436
:10125000136100280AD0091A04F0BCFA53469868B2
:101260001B69191A002801D004F0B4FA1A9B002B4C
:1012700067D018A90322080098472C9B0C9C019367
:101280002B9B01340293029A019B0C949A1A0B9B9C
:10129000911014330B934B005B1818011B181802A4
:1012A0001B1818041B189B005B18A34200D96CE69E
:1012B0002E981D9B80181C9A436002601EA908305E
:1012C000FFF76AF81E98002803D02099091A04F045
:1012D00081FA15980EE60024B9E6002111AB24A886
:1012E000FFF780FA534652465B68116878E718ABFF
:1012F000002124A8FFF776FA53461B680193534652
:101300005B6802935346DB68089353461B69099355
:1013100053469B680393F4E618AB002124A8FFF71B
:1013200061FA5346DB680E9353461B690F9353468D
:101330009B68099353465B68089353461B68029366
:101340004CE62C9B0C9801932B9B01300293029A44
:10135000019B0C909A1A0B9B911014330B930E4B1C
:101360004B43834200D910E6A2E719F04BFB1E9BCA
:10137000079302E71E9B0D9386E6310053461EA895
:10138000FFF730FA1599E8E5002291E769030010AC
:101390001D03001029030010CDCCCCCC10B50248A1
:1013A00006F0A2FF10BDC046E84300200123D02272
:1013B0008340120693629361094A83009446402257
:1013C00063441968C0004A40C02111408022520184
:1013D00013431960034B9C460523604443607047E8
:1013E00004C0014000400140024B18688007C00F54
:1013F0007047C04600C0064070B5EFF3108C72B65F
:101400000D4D2B68002BFCD0BFF35F8F0724CB085A
:10141000C618C05C01230C40A3401C0004400342DA
:1014200007D103433370BFF35F8F2C608CF31088B8
:1014300070BD100001F076FC2C0100D0F8B54746D5
:10144000CE46884680B5EFF3108C72B6214D2C68DD
:10145000002CFCD0BFF35F8F9A422CD8D40807270A
:10146000055D061901241740BC402C421FD00721FE
:101470000127894609E0D408055D06194C46390064
:101480001440A1400C00294211D001329342F2D203
:1014900001204042BFF35F8F00220E4B1A608CF395
:1014A000108800280FDBC0BCB946B046F8BD2C43FD
:1014B00010003470EEE7BFF35F8F00232B608CF3D6
:1014C0001088012040424346002BECD0089801F0E0
:1014D00029FCC0462C0100D00021044B044ABFF374
:1014E0005F8F02C39342FAD17047C046000100D01B
:1014F000800100D0044A1078431CDBB2172B00D9BE
:10150000102313707047C046BC1E002000B5054B69
:1015100083B00100009318221F230348FFF78EFFBA
:1015200003B000BDD4790410B449002001238340E6
:10153000002904D0034A1360034A13607047034A2A
:101540001360FBE780E200E000E100E080E100E002
:1015500001238340014A13607047C04600E200E067
:10156000084B10309B688000C358002B07D0064AF8
:1015700000209B1A2F229A424041C0B2704700209F
:10158000FCE7C04600ED00E0C01E0020024B10301A
:101590009B688000C058704700ED00E070B50D00FA
:1015A000EFF3108672B60F4A1368002BFCD0BFF31E
:1015B0005F8F0D4B10309B6884001B590B4A934280
:1015C00003D09D4201D001F0C5FB074B9B681D5124
:1015D000BFF35F8FBFF35F8F0022024B1A6086F369
:1015E000108870BD240100D000ED00E0CD01001096
:1015F000F0B557464E46DE464546E0B585B0060096
:1016000002911700EFF3108B72B6674A1368002B34
:10161000FCD0BFF35F8F0025644B5D579A46002DC9
:1016200000DAA4E06B00624C03935B199B009846C0
:10163000A146C1444B4652469B79103613705D4B10
:10164000B2009B68019299580B1B2F2B34D95A4B2F
:10165000994200D0A4E0039B584A9C46584B6544ED
:10166000AD006353434602336519E418554B01211D
:10167000043B1B1B1B055B0D13436B80524BEF712F
:10168000AB80FF23AB71029BAB604B460B43190051
:10169000484B019A9B689950BFF35F8FBFF35F8FF0
:1016A0000022414B1A608BF3108805B0F0BCBB469A
:1016B000B246A946A046F0BD01200A008243D37974
:1016C000BB422FD845464E46130040491B1B5B4189
:1016D0005943090D3A4B63533A4B02356519043BA4
:1016E0005B1B1B05354D5B0D2B4373800426B446F5
:1016F000E0444444131F1B1B4C46A17102991B0577
:10170000A16049465B0D2B43A380314BE771014338
:101710001360BDE75800C01880002018C679BE428B
:101720002BD902000623D356002BF3DA101D824674
:101730002848804604267642B446E14450464E4648
:10174000361A3005400D824656461C4895710643B0
:101750009680039A944665441D4AAD006419226040
:101760004246A371029BA280E771A36090E701F05B
:10177000F1FA002553465D5754E7101D82469088C4
:101780004005001584464046D4446646043020187F
:10179000301AE0260005400D360230438046C9E786
:1017A00001F0D8FA57E7C046240100D0C64E002009
:1017B000C01E002000ED00E0CD01001000E0FFFFA2
:1017C00000A1FFFFF01E002001BDFFFFAAAA00003C
:1017D0000148804701BD0000F0B5DE4657464E4641
:1017E0004546E0B50C0083B0EFF3108972B6584A55
:1017F0001368002BFCD0BFF35F8F564B9A68030031
:1018000010339F00D559544A9046954232D0A54294
:1018100043D0524EAA1B2F2A2CD801228240924636
:1018200051464F4A12681140019151464D4A11608C
:10183000BFF35F8FEFF305829346002A33D1012374
:101840002A009A4393689C4208D177E04B005B18CA
:101850009B00F3189968A1422AD01A00062151561C
:101860000029F3DA019B002B19D052463E4B1A6037
:101870003B4B1A60374B9B68DD51BFF35F8FBFF363
:101880005F8F0022324B1A6089F3108803B0F0BCDE
:10189000BB46B246A946A046F0BD1500EAE752464F
:1018A000304B1A60E6E79342C9D001F053FAC6E71D
:1018B00006215956002921DB4A00501880003418AF
:1018C0008046A0689860E079D8710620205698710B
:1018D000002824DBA488F01A640524154444001968
:1018E000E0240005400D24022043988052181F4B2D
:1018F0009200B6181A781970B271B3E759460029E8
:101900000FD1FF3191711A49918018490A789A7163
:10191000184A9B1B5B415A43120D0A70A2E71648F6
:10192000E3E7164A1649D21A083A5002400D01431D
:101930009980144952080A43DA8093E706215156E8
:1019400013000029B8DA5A46002AEAD14546DCE7F6
:10195000240100D000ED00E0CD010010C01E0020E9
:1019600000E100E080E100E080E200E0C64E0020FF
:1019700001BDFFFFAAAA000001BD0000FA1E002061
:1019800000F0FFFF00F8FFFF70B5EFF305810124C1
:101990000443EFF3108C72B6214A1368002BFCD07D
:1019A000BFF35F8F1F4B05001F4AED1A6D416A435D
:1019B000120D1E4D8900AE6852B27658A6421CD058
:1019C0000621595691421CD012215956914222D0DB
:1019D0001E215956914220D02A2159560324914262
:1019E00010D0134B19781A708171BFF35F8F0022EA
:1019F0000B4B1A608CF3108870BDAB680D4C5C50BB
:101A0000EFE700246100091989005B18FF21997133
:101A100009499980E5E70124F4E70224F2E7C0468A
:101A2000240100D0C01E0020AAAA000000ED00E0A2
:101A3000C64E0020CD01001001BDFFFF054B064A38
:101A40001360064A136053609360D360136153615F
:101A5000936170478080808000E400E004E400E04F
:101A600000B5074B83B00100009300220523054811
:101A7000FFF7E4FC002801DB1F23181A03B000BDA8
:101A8000F0790410CB4E0020024B9C466144890043
:101A9000016070474000003410B50400FFF72AFDD4
:101AA00001002000FFF7F0FFFF232371BFF35F8FDA
:101AB00010BDC04610B50400FFF71CFD010020005A
:101AC000FFF7E2FFFF23A380BFF35F8F10BDC04687
:101AD00010B504000120FFF719FD044B9C4660443B
:101AE00080002060BFF35F8F10BDC046400000340F
:101AF000034B9C46614489000160BFF35F8F7047D0
:101B00004000003483680B4810B584466144624449
:101B1000090112019A18591854684B6801209C4217
:101B200001D802D00020C0B210BD12680B689A42E2
:101B3000F9D8F7E7FFFFFF0F0A4B1968EFF31080A2
:101B400072B60A68002AFCD0BFF35F8F1B68BFF330
:101B50005F8F00221A6080F3108840BF00200021B0
:101B60007047C046944E0020F8B557464E4645464D
:101B7000DE46E0B599460CAB1C780DAB1B78060031
:101B800090469A460768002C11D1BC7B002C42D0AD
:101B900065003B682D19033D59194B78BB73002B29
:101BA00000D1FB7300238B704B700B7004E0650059
:101BB0003B682D19033D5919B2682A4B9446424699
:101BC000E3181B0163441A604A465A600A9A9A60F5
:101BD0000B9ADA6000238B704B700B707B7B9B46FB
:101BE000002B2BD022005946B8687B6898473A688A
:101BF000002816D05B4658465B005B445519033BF2
:101C0000A870D118D35C002B00D06B705B460C70B1
:101C10007B73A34513D0F0BCBB46B246A946A04691
:101C2000F8BD5B465B005B44033BD3189C705119C5
:101C3000525D002A00D05A705B460B707C7342469E
:101C40004B46307D00F034FB051E06D05346002B7A
:101C500003D12100306800F04FFD0E9B002BDAD03D
:101C60001D70D8E7FFFFFF0FF0B5DE4657464E4622
:101C700045460023E0B58BB00893674B8200D458EB
:101C800000239B46099000F099FA626806000F0055
:101C9000EFF3108572B61368002BFCD0BFF35F8F93
:101CA00023689C465B7B9946002B00D169E0A268C3
:101CB0005A4B90464B441B01984443461A685B6854
:101CC00010001900801BB941002900DC63E009986D
:101CD00000F0EEFA002300229846002306920793B4
:101CE00000239A466368BFF35F8F5A461A6085F3F4
:101CF00010885346002B08D10028C4D10BB0F0BC8B
:101D0000BB46B246A946A046F0BD089B4146180214
:101D10004B461843D047626806000F00EFF310856A
:101D200072B61368002BFCD0BFF35F8F002F50DB1F
:101D300033003B4302D02369002B61D12368D97B58
:101D4000002907D04A00521819688C464946624457
:101D5000033A51709A7B002A01D14A469A734A4647
:101D6000DA734B46E168013BCA5C0132CA545B46F8
:101D700023616368BFF35F8F5A461A6085F310884A
:101D800081E7002300229846002306920793002350
:101D900000209A46A6E7002902D1002800D096E745
:101DA0000021604600F026FC43461A685B680692F4
:101DB000079343469B689A464346DB689846E36828
:101DC0004B44013B1B7808931B0203432361002013
:101DD00088E72369002BB1D0069A079B921BBB4171
:101DE000002B15DB594604910121039149460291CC
:101DF00041460191514620000091FFF7B5FEB6E73C
:101E000000F0DCF932003B0012184B41002BE9DAFC
:101E10000122034B5242E5E7744E0020FFFFFF0F03
:101E2000FFFFFF7F10B5144C6368002B04D00A211C
:101E30001248FFF729FE10BD2300114A1021206827
:101E400000F0F2FA032000F0ADF9032000F09AFA56
:101E500003200C4900F0E6F9FFF74CFB0A4B9C46C7
:101E600003232375D0231B061B6860446375074B4F
:101E700080006060DC60DAE7081F0020944E0020DC
:101E8000051B0010691C001040000034744E002037
:101E900000487047081F0020F0B54E464546DE4614
:101EA0005746E0B585B0019310AB1B78060003934D
:101EB00000239946984600927268EFF3108B72B631
:101EC0001368002BFCD0BFF35F8F3568AC7B002C10
:101ED0003DD067002B683F19033FDB195A78AA737E
:101EE000002A00D1EA73B168474A8C4600980199EC
:101EF000A21812016244106051600E9991600F990E
:101F0000D16042469A705A701A706B7B9A46002BC9
:101F100067D022001900A8686B6898472A680028D3
:101F200052D0534650465B005344D719033BB87018
:101F3000D118D35C002B00D07B7053460C706B73B0
:101F400054454FD0F3681B19013B187800E000207E
:101F50007368BFF35F8F42461A608BF31088002CC2
:101F60004FD04B46002B08D10002204305B0F0BCF7
:101F7000BB46B246A946A046F0BD039B002B3ED00F
:101F80000E9B00200F999847030004000D000B439F
:101F900035D000290ADA009A019B121BAB4100924E
:101FA0000193002B0ADB039B994685E700F006F9B5
:101FB00024184D4100940195002DF4DA0123134CAF
:101FC0005B4200930194EEE753465B005344033BAE
:101FD000D3189C70D119D25D002A00D05A70534694
:101FE0000B706C73307D009A019B00F061F98146A3
:101FF0000028A7D02100306800F07EFBA2E7002077
:10200000B4E701204042B1E7FFFFFF0FFFFFFF7F72
:10201000407D7047F0B5EFF30583CE46474680B567
:1020200005000C0085B0002B12D02C4A0020536A0A
:102030009C4203D8926A0130AA4204D305B0C0BCC6
:10204000B946B046F0BDE01A421E9041C0B2F5E775
:10205000234E02930193234B0200009330000B00A8
:10206000FFF71AFF031EE0DD20BF7168EFF3108752
:1020700072B60A68002AFCD0BFF35F8FDAB29446CA
:102080003068427B62451DD0FF221A4051008946CC
:1020900001689144884649464144033989780029BA
:1020A00013D0F1681B0A88464244013A1278DBB229
:1020B0009A420FD07368BFF35F8F00221A6087F3D4
:1020C0001088B2E7FF221A40EBE732699342F1D160
:1020D0003161EFE7614600F00FFBEBE700400540A0
:1020E000081F0020391B0010F0B5EFF30582D6461B
:1020F0004F4646461000C0B51038EFF3108872B650
:10210000214C2368002BFCD0BFF35F8F0123190003
:1021100081401E4D1F006963AA461D4D29601D4D5B
:102120002E78AC463500C5402F402B4209D1BFF375
:102130005F8F276088F31088E0BCBA46B146A84696
:10214000F0BD5346144D5F6A83005D59AF420ED314
:10215000124A8E439B5862461670BFF35F8F00226F
:10216000226088F31088002BE6D09847E4E70C4BF8
:1021700092009C46624413681360BFF35F8F002394
:10218000236088F31088D7E7280100D0004005407D
:102190003C700540CA4E0020A04E00209C48002004
:1021A000D03F054010B50100024A0348FFF724F96B
:1021B00010BDC046187A0410C54E0020034B596A62
:1021C0000A00986A596A8A42FAD17047004005406D
:1021D00070B504000D00124A536A1900966A536ADA
:1021E0008B42FAD13000190024184D41AB4211D86E
:1021F0000ED02B000A494A6A9A42FCD307D1084AFA
:1022000002E0516A994202D1916AA142F9D370BDAC
:10221000A642EED9012301246442E5175B42E9E7B7
:102220000040054070B504000D00EFF3108672B653
:102230001A4A1368002BFCD0BFF35F8F002D1BD010
:102240002000FFF7A3F9164981420AD02000FFF7CA
:10225000A5F901212000FFF769F90123A340114AE4
:102260001360114BA400E550BFF35F8F00220B4BAE
:102270001A6086F3108870BD0B4BA200D550012266
:10228000A2400A4920000B7893430B700449FFF7E2
:10229000A3FA00212000FFF749F9E5E7280100D063
:1022A000E9200010386005409C480020CA4E0020FC
:1022B000F0B54F46D6464646C0B507002C4C616A7D
:1022C0000D00A66A616AA942FAD18B4208D805D0EE
:1022D0000120E0BCBA46B146A846F0BDB242F7D9EB
:1022E000EFF3108A72B6234801680029FCD0BFF3CF
:1022F0005F8F0125BD4020491D4C884609788946DD
:102300002943C9B28C46414660460870391D1B48B6
:10231000890065630A51B9000B50216A00202942E7
:1023200019D0616A0800A66A616A8142FAD18B42BB
:1023300019D801D1B24216D8CC4516D00C4B1F206B
:102340001D625D6301230740BB400D4A1E381360C8
:1023500043464A461A70BFF35F8F0022054B1A604E
:102360008AF31088B5E70020F5E70120F3E7C046BF
:1023700000400540280100D0CA4E0020A04E002099
:1023800080E200E0EFF3108C72B60A490B68002B74
:10239000FCD0BFF35F8F01238340074A07481362D5
:1023A00002789A430270BFF35F8F00230B608CF3B7
:1023B00010887047280100D000400540CA4E002018
:1023C00070B5050014001600002915D00C00002A75
:1023D00012D080686B689847296800280ED0730077
:1023E0009B196200033B1219CB18033A9C708818A2
:1023F0008A5C002A15D10670200070BD63001B198D
:102400007200033B9219CB18033A9E7088188A5CBD
:10241000002A02D104703400EEE75A7004703400D0
:10242000EAE75A700670E7E730B583600023CCB264
:1024300043730133047342608373C4730D000068F7
:10244000012C06D9421C0133DBB2137003329C42CB
:10245000F9D1FF2129404B005918002340180338B7
:10246000437030BDF8B5CE46474606000C0080B537
:10247000002907D04D0003686D18033D5A1957789D
:10248000002F04D12000C0BCB946B046F8BD790089
:10249000C91903398846434459788946002159703F
:1024A000517073683A0021008068984733680028AB
:1024B00014D042469A18947059195B5D002B00D0D5
:1024C00053700F70270049463000FFF7CBFF3900EB
:1024D00002003000FFF774FF0400D3E74246414694
:1024E0005D19AF709A185B5C002B00D06B70147094
:1024F000E9E7C046F0B557464546DE464E46E0B5EC
:102500000D006B0001685B19DF1E0400C85D83B01D
:102510000192CA19002850D043001B18033BCB1866
:102520005E78B446002E1AD1019E002E42D0E67B82
:10253000002E04D073009B19CB18033B5D70A37B66
:10254000002B00D1A573E57300282FD10023537011
:1025500003B0F0BCBB46B246A946A046F0BD72002F
:102560006244033A89184A78904600224A7091469C
:102570005A70010032002000FFF722FF43468246D6
:10258000002B07D05B0021684344033BCB185A78EB
:10259000002A16D1424651462000FFF711FF21685C
:1025A000019BCA19002BC2D10028CFD043001B18B1
:1025B000033BCB1800219970C8E7019B002BB6D1D3
:1025C000C4E7500080180338091848788346484605
:1025D0004870587041462000FFF7F2FE5946804689
:1025E0002000FFF73FFF414602002000FFF7E8FE12
:1025F0008046CFE7F0B557464546DE464E46E0B545
:1026000083B00191457B04006B0000685B19DF1EFD
:10261000C15DC219002952D04B005B18033BC3189F
:102620005E78B446002E1CD1019E002E44D0E67B7D
:10263000002E04D073009B19C318033B5D70A37B6D
:10264000002B00D1A573E573002931D100232800A8
:102650005370617303B0F0BCBB46B246A946A046B6
:10266000F0BD72006244033A80184278904600221E
:10267000427091465A7020003200FFF7A1FE434697
:102680008246002B07D05B0021684344033BCB18F4
:102690005A78002A17D1424651462000FFF790FE93
:1026A000019B01002068C219002BC0D10029CDD0A8
:1026B0004B005B18033BC31800209870C6E7019BD2
:1026C000002BB4D1C2E750008018033809184878AD
:1026D000834648464870587041462000FFF770FE18
:1026E000594680462000FFF7BDFE4146020020000B
:1026F000FFF766FE8046CEE770B5040000292CD0B7
:10270000437B8B422ED005684800401803382818B8
:102710008278002A21D053009B18033BEA5CEE1814
:102720008A4202D11BE0002A08D053009B18033BC9
:10273000EB185A788A42F6D142785A700023012267
:10274000837043702000FFF7D5FE617B02002000FC
:10275000FFF736FE6073012000E0002070BD437873
:102760003370EBE701221900FFF7C4FE607301200C
:10277000F4E7C04630B50C2083B000F0B3F9FEF7A3
:1027800033FE00280ED0994B994A1A605A609A601D
:10279000DA601A615A619A61DA611A62954A5A627C
:1027A00003B030BD944CA06700F0F0F90122934BC8
:1027B0001A60636C012BFCD10322914B1A608E4A84
:1027C000936B012BFCD1013301218E4A8E4800937B
:1027D000043300F037F905238C4A009301218C481B
:1027E00000F030F98B4B5A68FF2A02D88022520041
:1027F0005A6080227D4C824B21691201854D1A60FE
:10280000002907D0606901F01DFE431C5800C01864
:102810000338FDD2E0217F4B02201A68114080224C
:1028200052012A4311601968484003210140116098
:1028300004219A681142FCD08022802192012A430F
:1028400009011160802252005A60734B2361734B5F
:102850005968FF2900D85A600321684A6F4B1160FC
:1028600002399A681142FCD0E0201A681040802298
:1028700052011A43106018684840032101400220A9
:10288000116066498A681042FCD08022920113438D
:10289000802212011A608022614B52004A606361FB
:1028A000604B5968FF2900D85A6080225E4BE1696D
:1028B00012015C4D1A60002907D0606901F0C2FD69
:1028C000431C5800C0180338FDD2E02255490B685C
:1028D0001A4080235B012B431A60802380229B01D6
:1028E0002B4312011A608022414B52004A60E3617F
:1028F0004E4B5968FF2900D85A6080224C4B216A00
:1029000012014A4D1A60002907D0606901F09AFD52
:10291000431C5800C0180338FDD2E02243490B681D
:102920001A4080235B012B431A60802380229B0185
:102930002B4312011A60802380225B004B602C4BDA
:10294000D20223623B4B5968914200D25A608022E6
:10295000394B616A1201374D1A60002907D060694E
:1029600001F070FD431C5800C0180338FDD2E0226E
:1029700030490B681A4080235B012B431A60802387
:1029800080229B012B4312011A608023DB024B60E3
:10299000184B6362294B5A68FF2A02D880225200E2
:1029A0005A608022264BA1691201244D1A60002929
:1029B00007D0606901F046FD431C5800C018033879
:1029C000FDD2E0221D490B681A4080235B012B4396
:1029D0001A60802380229B012B4312011A608023FE
:1029E0005B004B600E4BA361DAE6C046B84900209D
:1029F000006CDC021BB70000008000403CB00040CF
:102A000030B00040002F685900800240008C86479B
:102A100000C0024030800040001BB7003C800040F6
:102A2000405973075480004054B00040608000401B
:102A300060B000406C8000406CB0004048800040B6
:102A400048B00040F8B5040021481D0017000E00F2
:102A500001F0F8FC0100380001F0F4FC069B2904A9
:102A60001B0319432368002B20DB1A4B1A4DE21875
:102A700053425A4180235B019C461203174B624428
:102A80001A60174B1A601700AB689F43FBD1C02236
:102A9000231D92011A4321232660A060136023683E
:102AA000002BFCDA0823E1601360F8BD3F232268A5
:102AB0001340B342D9D1A3681B051B0D8342D4D167
:102AC000EE22E368D20213408B42CED1EDE7C0463E
:102AD000001BB7000040FDBF00C0004000E0004008
:102AE00000F000408023024A9B000343D3627047FA
:102AF0000080054010B5140080221B4BD2051A60DF
:102B000000281AD00123194A1843194BDA61194ACF
:102B100042401A62596298628022134BD2051A60B1
:102B20001549164A1160E022D2041A60002C07D120
:102B30008022134B12061A6010BD0D4BD861EBE7D3
:102B400063011B1B9A008023121912015B049A4235
:102B500000D30C4A0C4B1A60054B5A608022084B7C
:102B6000D2051A60E8E7C04600B00540D3C007B000
:102B7000008005402D3FF84FFCFF01000820014078
:102B800000A00540FFFFFF00644E0020AA23064A74
:102B90001B0113602F230549D360054B196053684F
:102BA000002BFCDA7047C0460040024000B0FA003B
:102BB000006002402C4B2D4A70B51A602C4A2D4BF8
:102BC0002D491A6014008B689C43FBD12B4D2C4E71
:102BD000B54208D2013E761BB60808CD98472300BF
:102BE0000134B342F9D1FFF7C5FD264A214B1A60E3
:102BF000214A9368DB43DB01DD09002BF9D1402238
:102C0000214B224C224E9A675A671A67DA66B44201
:102C100008D223682000002B20D00834FEF74AFF9A
:102C2000B442F6D31B4E1C4CC022A168300002F007
:102C3000BBFDA660FEF750FCFEF700FFFFF7F2F8C1
:102C4000164C174EB44208D2013E361BB60808CCCB
:102C500098472B0001359E42F9D170BD0834FEF72C
:102C60001BFFB442D5D3DDE700E00040BFCDFBFE43
:102C7000FE7F3C0000F0004000C00040382A0020E9
:102C8000482A0020FFFFFF0100F00140302A002009
:102C9000382A00200000002000ED00E0482A002033
:102CA000702A002000BEFDE7094A030010680028D2
:102CB00005D00849C3188B4207D8136070470648EF
:102CC0000449C31810608B42F7D901204042F5E750
:102CD000584A002000000420CC4E002000207047FD
:102CE000012040427047C04610B5FFF7DBFFC046E9
:102CF00010B50C0082B01900002A0AD0064B0192D0
:102D0000009302002300054801F002FB0120FFF7B9
:102D1000C9FF034B1A00F2E73C7A04104C7A041006
:102D2000A8AC04100FB400B5084883B002F082FECE
:102D3000049B002B07D005A91800019101F008FBA6
:102D4000034802F077FE0120FFF7ACFF7C7A041005
:102D5000A8B8041010B50148FFF7E4FF8C7A0410FE
:102D60009A4200D2885470477047C046F8B557461B
:102D70004E464546DE46E0B599460A9B07009A4610
:102D80000D9B8846934615000B9E9B0710D10C9B0C
:102D90009E420DD29D1B14000E005D4422004B4646
:102DA000013431002020B847A542F7D1B0460B9E30
:102DB000002E27D0444675195346AA1B013E985D44
:102DC00021004B46B847002EF6D123002C00984630
:102DD0000D9B9B070FD55B46E51A0C9BAB420AD9AE
:102DE0004646984622004B46310020200135B84720
:102DF0000134A845F6D82000F0BCBB46B246A9462F
:102E0000A046F8BD2C00E3E7F0B54F464646D6464F
:102E1000C0B584B098460EAB1B78129F9946944675
:102E20000D9C109B119EBA0725D4002E4BD19C42BD
:102E300000D3BFE001223A4092461F2C00D9B8E0EF
:102E40000C9A551E302201E0202C03D001342A5563
:102E5000A342F9D85246002A0DD0A6420BD9202C05
:102E600044D00C9A551E302201E0202C3ED0013473
:102E70002A55B442F9D1FA064DD57A053FD4002C33
:102E800039D10F9B102B00D179E00F9B022B00D181
:102E90008AE030230C9A012413704B46002B3FD05C
:102EA0002D230C9A135501340C9B62460093039713
:102EB000434602960194FFF759FF04B0E0BCBA46BE
:102EC000B146A846F0BD012215003D40AA463A424F
:102ED0002FD04A46002A02D10C323A4200D0013E9D
:102EE0009C42BAD21F2CABD9202E27D92024FA0617
:102EF000DAD57A0503D4A3422DD0A6422BD00F9B5E
:102F0000102B32D0022B20D0202CCDD030220C9B85
:102F10001B191A700134202CC6D04B46002BBFD190
:102F20007B070DD43B07BFD520230C9A13550134E2
:102F3000BAE79C429FD21F2C00D881E720249AE751
:102F40002B230C9A13550134AEE7202CACD00C9BEC
:102F50001B1901343AE0631E012C92D00F9A102AFB
:102F60002AD0022A2FD01C00D0E7BB060ED4202C7A
:102F70009AD00C9B1A19013478231370C4E7BB064E
:102F80000DD478230C9A01241370BFE7202C00D1B4
:102F90008AE758220C9B1B191A700134B4E7582396
:102FA0000C9A01241370B1E70C9A6033012413705A
:102FB000ACE7202400265EE7023CBA06E9D40C9A6E
:102FC00012191C00D8E70C9A9246534462221A70D8
:102FD0009AE7C04610B5002800D110BD02F0DEFC13
:102FE000FBE7C046F0B5DE4657464E464546E0B5DF
:102FF0009BB09B46249B89469846259B0B900C9240
:103000004046424619009A4601F0EDFC002800D0E7
:10301000D8E0012240465146774B524201F0DEFC97
:10302000002800D0CEE0012240465146734B524268
:1030300001F0BEFC002800D0C4E00022002340467E
:10304000514601F0B5FC002800D0B9E14246534694
:103050000A9209938023289ADB001A400E92289A3C
:103060001A4201D1062326930A9A099B160013439C
:1030700000D0C7E0289B002500261B0500D49BE15B
:1030800000230D93269A0D9B9A4200DC9FE1D01AF3
:10309000431E26938023289ADB001A43002300272F
:1030A00028920D93279B0024BB4200D9DC1B0223EE
:1030B000289A1A400E92289A134203D07B427B41F1
:1030C0005B421C400D9B002B07D00A9809992A00EF
:1030D000330001F004FC0A900991002200234046CD
:1030E000514601F065FC002805D08020000684468A
:1030F000099961440991289A414B0B9D134004930F
:10310000269B0A9A0293099B0394009201934946D5
:103110005B4628000C9A00F08BF90400002F62D067
:10312000289B220098061F23C0179843631C9846CB
:1031300049465B466530A8470D9B0025DA179C1869
:10314000DB0F9A465440013F01E0202D13D00AAA1C
:1031500094461F23200063440A2101355E1901F0C3
:1031600071F93031317020000A2101F06BF926002D
:103170000400092EE9D805230693002304930A339B
:103180000393534605970B9F029312AB009342465D
:103190005B46494638000195FFF736FE0E9B04005A
:1031A000002B20D00C9BC51A279BAB421BD91E00BD
:1031B00022005B46494620200135B8470134AE4223
:1031C000F6D810E0289B42460493279B4946039378
:1031D000269B0B9802935346009201935B460C9AF0
:1031E00000F026F9040020001BB0F0BCBB46B2463C
:1031F000A946A046F0BDC046FFFFEF7FFFFFEFFFEF
:10320000FFF7FFFF734B099F9C467800400D604419
:1032100001F0FCFB704A714B01F07FFB704A714B6F
:1032200001F054FB3B03704A1B0B1A4304000D00D2
:10323000300011006D4B002201F03FFB6C4A6D4BDA
:1032400001F06BFB02000B002000290001F03EFBA7
:1032500001F0F4FB0D9001F0D9FB674A674B0400C5
:103260000D0001F05AFB0022654B01F02FFB01F02D
:10327000E5FB644A0600644B2000290001F04DFB89
:10328000040030000D000F9601F0C0FB5F4A604B58
:1032900001F043FB02000B002000290001F00DFBB0
:1032A00002000B0006000F0001F037FB32000400A3
:1032B0000D003B003000390001F008FB00221090A7
:1032C0001191544B2000290001F009FB0022524BC0
:1032D00001F0FCFA02000B002000290001F0FFFAC7
:1032E00000224E4B01F0F2FA02000B0020002900F0
:1032F00001F0F5FA0D008021040032003B000020AF
:10330000C90501F0DAFA02000B002000290001F0E3
:10331000DDFA02000B001098119901F0E0FA00228A
:10332000314B01F0D3FA3E4B0F9C9C466444002283
:10333000230501F0F2FA05000E0002000B000A98C6
:10334000099901F035FB00280AD00D9B2800013BAC
:1033500031000D930022304B01F0C1FA05000E0040
:10336000C6270D992B0063318F42BF4128997F42B8
:103370000437090500D495E6334300D182E6099C61
:10338000284A2100284B0A9801F020FB002808D089
:1033900000222100254B0A9801F00AFB002800D0EA
:1033A00070E6269B002B00D17CE60E9B5A1E9341B3
:1033B000269AD31A269375E6002304270D9371E607
:1033C00043460A9380231B065344099342E6002395
:1033D00026935FE601FCFFFFFB799F501344D33F28
:1033E000B3C8608B288AC63F0000F03F0000F83F5A
:1033F00061436F63A787D23F71A379094F930A4056
:103400000000E03F1655B5BBB16B0240EF39FAFE44
:10341000422EE63F00002C400000244000001840EF
:10342000FF0300002D431CEBE2361A3F80842E413F
:10343000F0B54E46DE4657464546E0B597B099464C
:10344000209E219F229B8346984607910C923B0029
:1034500032003000390001F0C6FA002800D0A9E19E
:10346000012230003900CA4B524201F0A1FA002873
:1034700000D0E1E0012230003900C64B524201F099
:10348000ADFA002800D0B7E0002230003900C24B6E
:1034900001F0A4FA002800D099E0002230003900A1
:1034A000BE4B01F085FA002800D090E000220023F6
:1034B0003000390001F07CFA002800D0B1E0002390
:1034C0000D93249B5B0501D40623984608AB9C46CC
:1034D0001722002430234146624404E0013413558E
:1034E0000139202C01D00929F8D88846300039004C
:1034F00001F0A4FA4346DA00A94B05009B181A68AC
:103500005B680892099301F081FA02000B00300019
:10351000390001F0D2F9089A099B01F0FEF90A90EE
:103520000B9101F0AFFA824601F06CFA02000B0039
:103530000A980B9901F0C1F900229A4B0A900B915D
:1035400001F04CFA002800D1C0E001239C46E2447F
:10355000504601F057FA02000B000898099901F053
:103560002DFA002802D000239A4601354346002B4D
:103570006AD008AB17269C4608956644554614E069
:1035800001235B4243440A2128009A4600F05AFF77
:10359000013430313719397028000A2100F052FF08
:1035A000092D00D8D0E0D0460500202CE8D10EAB84
:1035B00098460323249A1340012B00D196E0202340
:1035C000249A01930392239A434602921EE0249B7D
:1035D00058460493239B00960197039343460C9A05
:1035E000029307994B46FFF7FDFC17B0F0BCBB46B2
:1035F000B246A946A046F0BD249B5B070ED4032229
:10360000694B2499019203912399029100935846A2
:103610004B460C9A0799FFF7A9FBE6E70422634B98
:10362000EFE73B0032000020002101F046F90123C2
:1036300006000F000D9344E7249B0393239B029302
:10364000042301935A4BE1E7280001F0DFF902005F
:103650000B003000390001F030F9524B0022060017
:103660000F0001F0A5F90EAB984600280AD1002200
:10367000300039004B4B01F0B1F9002802D1EB07C3
:1036800000D50135202C94D008AA94461723280091
:1036900063440A2101341E1900F0ACFE30312800C9
:1036A00031700A2100F0A6FE051EEBD10323249AF7
:1036B0001340012B1BD0202C00D180E70D9B002B49
:1036C00035D02D224146631C0A5579E700220A981D
:1036D0000B99344B01F06CF9002800D046E75346B3
:1036E000002B51D101239C46E2443FE72024239B39
:1036F000002BE0D00D9B002B03D1249A0C331342F6
:1037000002D0239B013B2393239BA342D3D908AB35
:103710009C46172230236244202C00D14FE7239986
:10372000013413558C42C6D0202CF8D147E7249B96
:103730005B0724D4249A2300120700D440E72022F8
:10374000414601330A553BE75746089D202C00D1DE
:103750002DE7220030214046002F09D00132B1541C
:10376000202A00D123E7D3431B191B18002BF5D1C6
:103770000EAB98462E234146541C8B5482E72B22D5
:103780004146631C0A551BE7DB0700D4EEE6A9E7B8
:10379000FFFFEFFFFFFFEF7F65CDCD4165CDCDC1D1
:1037A000907C04100000E03F987A04109C7A04108A
:1037B000A87A0410249B0393239B02930323019371
:1037C000004B23E7A47A0410F0B5DE464E46574678
:1037D0004546E0B59FB01C00289B91460993C94A15
:1037E000C94B8B4608901A60002900D118E20023CB
:1037F00020789A46002800D11AE226001D005C4677
:103800000AE02A006F1C4B46089D2100A8473D0096
:1038100001363078002870D02528F2D110239B463D
:10382000083B9A46043B9846023B00219C46721C8A
:10383000107816000300203BDBB2102B03D8B34FE7
:103840009B00FB589F460300303B092B32D90023D5
:103850000A932A2868D0002398462E283ED00300D9
:10386000683BDBB2122B1CD8A94A9B00D3589F4659
:10387000012301321943DBE7634601321943D7E7DD
:10388000434601321943D3E75B4601321943CFE780
:10389000534601321943CBE780235B00707819430C
:1038A00001360300253BDBB2532BAAD8994A9B0073
:1038B000D3589F4600270300B800C01901364000C6
:1038C000C018337830381A00303A0700092AF3D983
:1038D0000A901800002398462E28C0D180237078C3
:1038E000DB0019430300303B721C092B00D8A1E117
:1038F0002A2800D1B2E11600B1E7A346AA462C005F
:10390000D14503D801235B424B449A464B4652466D
:1039100059460020089DA84720001FB0F0BCBB46B8
:10392000B246A946A046F0BD099B40CB0A96002EA0
:1039300003DB50780993561C8DE728380143704209
:103940000A9009935078561C85E7782800D1DFE16A
:10395000582800D14CE26F2800D14FE3622801D1F2
:1039600000F030FC10230A009A430B92692801D022
:1039700000F0A9FC0A230C934B0500D5D0E10B9A6B
:10398000802311009B0019408B461A4200D0A1E20F
:10399000802311005B0019408A461A4200D0B6E32A
:1039A00013005B0600D5EDE2130009991B0601D454
:1039B00000F076FC08C91BB2D8171A18424092B220
:1039C00009919346DA0F1292002B09D1802310221D
:1039D0000B99DB000B4091430B91002B00D0E4E2EC
:1039E0000B9A6123920600D541230EA91F228C4613
:1039F000DBB262440A3B5F461395A34655460C9CD6
:103A0000B2460D9316000AE03033DBB20135735530
:103A1000A74200D2EDE2202D00D1EAE2070021000A
:103A2000380000F00FFDCBB20929EDD90D9A94466C
:103A30006344DBB2EAE780239B00707819430136C8
:103A40002FE77078682800D1CDE180230136194333
:103A500027E770786C2800D1BFE180235B00194311
:103A600001361EE7462800D19BE10722099B0491FD
:103A7000073393430A9A19000392424602920CC9F3
:103A800008980092019309912A004B462100FFF704
:103A9000CFFC01360500BCE62A006F1C4B46089D92
:103AA00021002520A84701363D00B2E68B0700D44F
:103AB000ADE1099B2A009A466B1C9846534601CB00
:103AC00021009A46089F4B46C0B2B8470A9B9C46C5
:103AD0006544012B00D886E2089B4746B046260085
:103AE0004C4699463A002300013731002020C84750
:103AF000AF42F7D1A14653463400464609930136FA
:103B000087E6C046C9370010604E0020B07A041026
:103B1000F47A0410407B0410099B04CB9B46434677
:103B20000992002B00D1C6E013789C46002B00D1EF
:103B3000BDE34346013B099A0133D0180A9F1300A5
:103B400001E0834203D05A780133002AF9D1099A5F
:103B50000A979B1A0B9380230A00DB001A400C92F1
:103B6000194204D00B9B434501D943460B930223D2
:103B70001A000A400D920B4200D187E160460028EE
:103B800000D168E10C9B002B00D10DE1A844C24696
:103B9000099B57465B1B9846089BB2462A002600A5
:103BA0004C46994609E023003100551CC84743465E
:103BB000585D002800D126E12A009742F3D1A146A2
:103BC0003D00340056460D9B002B00D043E15B4680
:103BD000013609931DE6099B1A0008CA9246002B7C
:103BE00048D0212211438B460EA884461F216144F0
:103BF000099500220F27A4460D0002E0202A0CD0D0
:103C00000B003C001C4020003730092C00D807383E
:103C10000132A85419090F2BF0D86446099D32E0EF
:103C2000DC4B2078089300239A46002800D0E4E576
:103C3000002465E6434606000A9F9800C01801323A
:103C4000400080191678030030003038303B0928D6
:103C5000F3D93000984616000A9700E6099B023611
:103C600004CB9046D2434046D21710408046099379
:103C70003078F4E510220800904311321043834657
:103C800000224905B0D55B460693082305934346B9
:103C90000493102303930023029316AB0192009325
:103CA0002A004B4621000898FFF7AEF8534605005E
:103CB00001360993ADE513789C46002B00D1F7E25D
:103CC00002235B4237E7202302009A43472A04D1AC
:103CD00080231B01194302239843452801D1202347
:103CE00019430722099B0491073393430A9A190049
:103CF0000392424602920CC90898009201930991DE
:103D00002A004B462100FFF76DF90136050080E5DA
:103D100010230C930C230A009A430B924B0503D5F6
:103D200001230B9A9A430B92692800D127E6642855
:103D300000D124E60B9A802311009B0019408B468A
:103D40001A4200D066E1802311005B0019408A46C8
:103D50001A4200D039E213005B0600D53CE11300A3
:103D60001B0600D4A6E2099B04CB1204120C934656
:103D700009935B46002B00D09AE10B9A1033110097
:103D800099430B91520500D492E100239A460B9B74
:103D900006930A9B0593434604930C9B03930023CD
:103DA0000CE12023194360E6099B0A9A5B1B9846A5
:103DB0004B4691461F00B2462600089C2A003B0055
:103DC0003100A04743460135585D0028F6D14A46E8
:103DD0003400B94656460A92F5E6C0239B00B078F7
:103DE000194302365DE5C023B0781943023658E521
:103DF0000C230A009A4314331A43103B0B920C9382
:103E00004B058DD496E7A14634005646DBE60A9A68
:103E1000012A00D853E26B1E9F18089BB04626006B
:103E20004C4699462A002300013531002020C8471E
:103E3000BD42F7D1A14634004646099B3A0001CB6A
:103E4000210098467D1C4B46089FC0B2B8474346A8
:103E500001360993DDE40B9B0A9AA8469A4200D8E2
:103E6000B5E694466544ED1A089B4746B0462600E1
:103E70004C4699463A002300013731002020C847BC
:103E8000AF42F7D1A14634004646A0E60B9A0A9904
:103E9000531C914200D814E24B199B1A1F00089B37
:103EA000B24626004C4699462A00230001353100CF
:103EB0002020C847BD42F7D10A9BA14601330B938E
:103EC000099B34001B7856469C466046002800D06B
:103ED00058E67CE60722099B073393430132944658
:103EE0009C4462465F6809921A68FB17109311930D
:103EF00010981199030053400E930B007B400F93D1
:103F000094460E9A0F9B121A8B410E920F93FB0F41
:103F10006246129300233A439B463DD00B9A61239D
:103F2000920600D541230022DBB20EA90A3B8C4643
:103F300092460D9343461F3262441395159655469B
:103F40000E9E0F9FA24690460C9C14930CE03032BC
:103F5000D2B2434601355A55BB4500D18AE1202DE6
:103F600000D18AE106000F00220000233000390052
:103F700000F0A6FAD2B2092AE9D90D9B9C46624408
:103F8000D2B2E6E7FF23099904C913401A00099148
:103F900017E5C046692D00100B9A103311009943A4
:103FA0000B915205BAD500239A460B9B06930A9BA8
:103FB0000593434604930C9B0393129B0293534631
:103FC000019316AB2A00009321004B460898FEF798
:103FD0001BFF013605001CE4FF22099B02CB1140A8
:103FE0008B460993C5E65346454609930136FFF7CC
:103FF00010FC56465C46AA46139DD6E708230C9350
:104000000B910B99642800D084E60B9B5B0500D5CF
:1040100086E6B4E40722099B0733934301329446B2
:104020009C44624609921A685B6810009B46130024
:104030005A46134307D10B9A1033110099430B9141
:10404000520500D5A1E60B9A6123920600D54123C3
:104050000022DBB20EA90A3B8C4692460D934346E2
:104060001F3262445F461295A34655460400B2468D
:1040700090460C9E13930DE03032D2B24346013588
:104080005A550023BB4200D100E1202D00D100E1B0
:1040900004000F00320000232000390000F010FA65
:1040A000D2B2092AE8D90D9B9C466244D2B2E5E718
:1040B0000B9A6123920600D54123DBB20EA90A3B7D
:1040C0001F228C460D93230062445C461295170014
:1040D00055469B46B2460C9E08E03033DBB20135B4
:1040E0007B55B4420ED3202D0CD0040031002000AB
:1040F00000F0A8F9CBB20929EFD90D9A9446634490
:10410000DBB2ECE756465C46AA46129D3FE6099BA9
:104110001A0008CAD91713925A184A409246DA0F61
:104120001292002B08D1802310220B99DB000B4048
:1041300091430B91002B2BD10B9A6123920600D552
:1041400041230EAA1F279446DBB20A3B0D95674414
:104150005D460993A3465446B2460C9E08E03033B0
:10416000DBB201357B55B4420ED3202D0CD00400B8
:104170003100200000F066F9CBB20929EFD9099A85
:1041800094466344DBB2ECE756465C46AB460D9D75
:104190000B9B2A0006930A9B210005934346049338
:1041A0000C9B08980393129B013602935B46019384
:1041B00016AB00934B46FEF727FE139B05000993B1
:1041C000FFF727FB02230C931AE7099B04CB9246C7
:1041D0001293002A08D1802310220B99DB000B4098
:1041E00091430B91002B2BD10B9A6123920600D5A2
:1041F00041230EAA1F279446DBB20A3B0D95674464
:104200005D460993A3465446B2460C9E08E03033FF
:10421000DBB201357B55B4420ED3202D0CD0040007
:104220003100200000F00EF9CBB20929EFD9099A2C
:1042300094466344DBB2ECE756465C46AB460D9DC4
:104240000B9B2A0006930A9B210005934346049387
:104250000C9B08980393002302935B46019316ABD3
:1042600000934B46FEF7D0FD129B050009930136E3
:10427000FFF7CFFAB44200D871E6149B54460E966D
:104280000F97AA469846159E139D8EE6A64200D823
:10429000FBE6139B56469846AA465C46129D76E579
:1042A00008C9D8171A1842400991FFF78AFB002362
:1042B0000B9350E4099B04CB9346099359E52F00D7
:1042C000BBE50B9301E6063B0C939AE60EB4012284
:1042D00010B585B007AC08CC0100009452420448E8
:1042E0000394FFF771FA05B010BC08BC03B018477F
:1042F000612D001000B583B0009313000A00010087
:104300000248FFF761FA03B000BDC046612D0010FE
:104310000FB410B50C4984B006AA08CA0C68039201
:10432000002C0BD0009201220848524202A9A0475B
:10433000012004B010BC08BC04B01847180001F0FC
:1043400079FB0020F5E7C046604E0020D52F001015
:1043500010B5094A0300146884B0002C08D001226B
:1043600000910648524203A9A047012004B010BDA5
:1043700001F060FB0020F9E7604E0020D52F00100F
:1043800001480421014B1847301F0020B1430010A1
:10439000142310B50100188804331B88984710BDFA
:1043A000162310B50100188802331B88984710BDEA
:1043B000F8B54746CE4680B50F1E19D0142399464E
:1043C000043304000025012698464B4618884346CE
:1043D00021681B88984701C4431E9841013540421B
:1043E0000640AF42F1D13000C0BCB946B046F8BD7E
:1043F0000126F8E7124A936F9B0815D29066D166A2
:10440000002905D0FFE7FFE7FFE7516F106F704706
:1044100004B580210906C2175140002800D0C843C6
:1044200043F016FA002104BDF0B5146E556E576FB7
:10443000166FFFF7E3FF1466556657671667F0BD02
:10444000000000D0114A936F9B0813D2106651668A
:10445000002905D0FFE7FFE7FFE7516F106F7047B6
:1044600004B5002801D00020C04343F0F1F9002139
:1044700004BDC046F0B5146E556E576F166FFFF74A
:10448000E5FF1466556657671667F0BD000000D05B
:1044900094464A4A926F9208624601D228E0C0468A
:1044A000F0B5464E346E756E776F366F00F020F8BB
:1044B0009446424A14665566576716676246F0BDD1
:1044C00094463E4A926F9208624601D254E0C0463A
:1044D000F0B53A4E346E756E776F366F00F04CF86B
:1044E0009446364A14665566576716676246F0BDAD
:1044F000002B24DB11D000293EDA00B5C94340422D
:1045000000D1013100F038F8C943404200D10131F7
:10451000DB43524200D1013300BD002AEBD1002819
:1045200001D1002905D00020C90FC90701D1C0431E
:10453000410800B543F04CF90022002300BD00B54E
:1045400000290ADBDB43524200D1013300F014F8AA
:10455000C943404200D1013100BDC943404200D1AE
:104560000131DB43524200D1013300F005F8DB4357
:10457000524200D1013300BD002923D1002B18D1B4
:10458000002A0CD0BC460D4F38667A660021002305
:10459000FFE7FFE7FFE77A6F386F6746704700284D
:1045A00001D00748010000B543F012F900220023B2
:1045B00000BD02000B00002000217047000000D069
:1045C000FFFFFFFF002B00D0BFE0130C28D1002A13
:1045D000E7D080B4114F39667A66FFE7FFE730B461
:1045E000040C7B6F396F1B0423433B667A66FFE73D
:1045F000FFE7FFE7C04684B27B6F3D6F1B04234398
:104600003B667A66FFE7FFE7C04600232C042D0CCB
:104610007A6F386F00196941B0BC7047000000D054
:10462000F0B594460025140E01D112020835140F7E
:1046300001D112010435940F01D192000235D40F3B
:1046400001D152000135D40B0134254F7C66254C35
:104650003C660E0C93B2FFE7FFE7FFE73C6F664353
:10466000360C7703BE467343DF0B5B04C01AB941B7
:10467000130C7343DB18C91ACE086643360CB644D4
:1046800093B273431F0F1B01C01AB941130C73433C
:104690001F0B1B05C01AB941860D8F023E436643AE
:1046A000360C092D24DB520A7243801A7703460A1E
:1046B0006643360C16235B1BDE40DF40BF196446A1
:1046C0006643821B7046043506330100D940A8407A
:1046D000C01900D30131A24206D20023F0BD000070
:1046E000000000D0FFFFFFFF121B0130F3D3F1E702
:1046F00009277F1BFE406446A2B27243801A00D293
:104700000139220C7243130C1204821A99410B00D6
:104710007046043513370100F940A840801900D3D2
:104720000131002B02D1A2420AD2F0BD013000D3E8
:104730000131121BFAD2013BF8D1A24200D2F0BDE6
:10474000013000D30131121BF7E7F0B51C0C00D08B
:1047500080E00CB400251C0A04D11B02160E334362
:10476000120208351C0B04D11B01160F3343120132
:1047700004359C0B04D19B00960F33439200023505
:10478000DC0B02D192185B4101351C009718644183
:104790000134464F7C66464C3C660E0CFFE7FFE753
:1047A000FFE7C0463C6F6643360C7703BE4697B2C0
:1047B0007743C01B00D20139C01B00D201399FB220
:1047C0007743C91BC91B170C77437E04FF0B801B63
:1047D000B941CE086643360C0C2D33DBB644120BC0
:1047E0001F053A431B0B97B27743C01B00D2013918
:1047F0009FB27743C91B170C77433E043F0C801BC5
:10480000B941860D8F023E43664329277F1BFE4038
:104810000C3D7746AF40BF1930BCA2B2ABB2724379
:104820007343801A9941220C7243130C1204801AAC
:10483000994102000B000137001BA941F9D2781EF3
:104840000021F0BD0C277F1BFE4077467F0BAF4059
:10485000FF19E0E700245D1C07D0144F7D66396620
:10486000FFE7FFE7FFE7FFE73C6F95B29EB26543C6
:104870006643401BB141150C1E0C6543664336046C
:104880002F0C3E432D04401BB141994204D202003B
:104890000B0020000021F0BD01D19042F7D3801A17
:1048A000994101349942F2D3F6E70000000000D0AC
:1048B000FFFFFFFF48404140484018B41B4B5B6876
:1048C000FC46019308BD04DF034C001018B4174BDD
:1048D0001B68FC46019308BD00DF0D4C0010944698
:1048E000134A926F920809D2624618B40F4BDB68E4
:1048F000FC46019308BD0CDFC54E00100C4AF0B514
:10490000146E556E576F166F6246FFF7EEFF084A3A
:104910001466556657671667F0BD18B4034B9B685D
:10492000FC46019308BD08DF694D0010782B00207C
:10493000000000D0FFB550404240504059404B402D
:10494000594000E0FFB5154F4C00640D03D0BC4248
:1049500004D10C0314D80020090D09055C00640D76
:1049600003D0BC4204D11C030AD800221B0D1B0536
:1049700001264B4009D44B4003D58B4200D18242E3
:10498000FFBD9942FCD19042FFBD0B43DB180343AE
:104990001343F5D0C9434918FFBD0000FF070000CD
:1049A00000B5FFF7CFFF01D0002000BD012000BD02
:1049B00000B5FFF7C7FF804100BDC04600B5FFF757
:1049C000C1FF01D9002000BD012000BD00B5FFF7E7
:1049D000B1FF01D9002000BD012000BD00B5FFF7E7
:1049E000A9FF804100BD012040054A00121804D8EB
:1049F0005A00121801D8002070470120704700208B
:104A0000704700000021002805D17047C1174840B9
:104A1000401AFAD0C90713B5064B1B6898470CBC5F
:104A2000441CA2401005120B0349091B0905194338
:104A3000114310BD904E00201F04000010B54C0023
:104A4000620D8023D218DB00D21A5B057E2A10DDAE
:104A50009E3A13DACC170903490819435242D14050
:104A6000640001341532202A05DAD040084360433F
:104A700010BD002010BD0846604310BDC80FC0180F
:104A8000013810BD18B4044B5B6AFC46019308BDA5
:104A900024DF755000100000782B002018B4044B60
:104AA000DB6DFC46019308BD5CDF81510010000006
:104AB000782B0020C94211D300B5490049080022D3
:104AC00000F018F8002904D4002240428A4111461F
:104AD00000BD80210906002000BD000018B4044B71
:104AE000DB6EFC46019308BD6CDF835000100000B4
:104AF000782B002018B4044B9B6FFC46019308BD33
:104B000078DF9F5000100000782B002018B4044B71
:104B1000DB6FFC46019308BD7CDF0D5100100000E7
:104B2000782B002018B4044BDB6CFC46019308BDC5
:104B30004CDFB95200100000782B0020132370B511
:104B40001D78012D15D010DD1C48FFF729FC1C4CE9
:104B500001008022200000F027FE022D06D0194817
:104B6000FFF716FC184B186070BD154C174BA3646B
:104B7000F5E7164B124C23606360A360E36023618A
:104B80006361A361E36123626362A362E3622363FF
:104B90006363A363E36323646364A364E3642365DF
:104BA0006365A365E36523666366A366E3662367BF
:104BB0006367A367E367A364D1E7C046534400007B
:104BC000782B00204C330000904E0020D14B001079
:104BD00007B5604601880A0A0230DF2AFAD1C9B255
:104BE000820804D3028840880004104300E0006873
:104BF000014A5050039007BD782B00200FB403BC2E
:104C00000CBCF0B50124E407634000E0F0B50C0DE6
:104C1000CF0F661E3605891B640503D3C943404286
:104C200000D30131640D03D0661CF60A07D0E41BE3
:104C300000207F00791C89078912803C24031D0D08
:104C4000DF0F6E1E36059B1B6D0503D3DB435242FF
:104C500000D301336D0D03D06E1CF60A07D0ED1B97
:104C600000227F007B1C9B079B12803D2D032F1B86
:104C7000661B58D4A446202E46DA20371400BC40C8
:104C80001D00BD40F24033412A4380185941CB0FEB
:104C900005D0C943C043002264425041514162469D
:104CA0004D0D28D10D0D07D100281FD024194041EA
:104CB0004941013A0D0DF9D0640006D3013000D30B
:104CC0000131002C01D140084000013A0BD4941C62
:104CD000E40A04D112051144DB071944F0BDD907D9
:104CE000204B194300E0D9070020F0BD0029DDD199
:104CF000002CDBD1F0BD0132C6074008CD072843A8
:104D00004908002EE1D0D9E73C2E29DA203E403771
:104D10001400BC4000D00124F24014431A00BB40F0
:104D20001C43D317ACE7AC46202F08DA203604002A
:104D3000B4400D00B540F84039412843A5E73C2F69
:104D40000CDA203F40360400B44000D00124F84083
:104D500004430800B1400C43C117EAE710001900F2
:104D6000002494E70000F07FF0B50C0D661E3605B8
:104D7000891BE60A6405640D02D0651CED0A04D0A7
:104D8000002001210905803C2403A4461C0D671E58
:104D90003F05DB1BE70A6405640D02D0651CED0AC4
:104DA00004D0002201231B05803C24037740644487
:104DB00097B484B296B27443070C7E43150C6F43CC
:104DC00080B26843361802D3012000043F18300433
:104DD000350C00197D41844688B29AB250430C0CC0
:104DE00062431F0C7C438EB27E43921902D301268C
:104DF0003604A4191604170C3618674101BC81B299
:104E00009AB25143040C62431B0C5C4380B258437A
:104E1000121802D30120000424181004130C4018A7
:104E200063412D185E410020474106BC88B293B211
:104E300058430C0C6343120C544389B251435B1822
:104E400002D301210904641819041A0C09186241DB
:104E50006D1856410020474118BCF902720D1143EC
:104E6000F0026A0D1043ED020A0D03D16D194041A5
:104E70004941013B124E9B1B7600B3420ED26D009E
:104E800007D30130002671416646354301D1400801
:104E900040001B05C918E4072144F0BD0BDA0133BB
:104EA00006D1013004D101314F0D01D04908F2E79C
:104EB000E1070020F0BD013631050020EBE70000DE
:104EC000FF030000F0B51C0D671E3F05DB1BE70A62
:104ED0006405640D02D0661CF60A04D0002201238A
:104EE0001B05803C2403D0252D060026F6432E66A4
:104EF0001E096E66CE0FF619B44649004F0D02D05A
:104F00007E1CF60A03D000200021403F3F033E1BD9
:104F1000B600B444013F7F05C91B49082E6F013616
:104F200076089C02950D25437543ED137543AD132B
:104F300001356D10F603761B0CB4CC02450D2C43E5
:104F4000A2B2B3B25A43270C7B43350C6F43A4B2D1
:104F50006C431B1902D3012424043F191C041D0CAB
:104F6000A4187D4124196D41009A91B2ACB26143FD
:104F7000170C7C432B0C5F4392B25A43A41802D304
:104F800001221204BF182204230C52187B41019CF9
:104F90006C431B19520ED9010A434401A01A81B275
:104FA000B2B2514303145A43360C734387B277436A
:104FB000D617D21900277E4136049B191704160C08
:104FC0007F185E417316ED18F3010026803375419A
:104FD000A90F06D16400690AE8055B0A184309D2E3
:104FE0002FE00422944480337541A90AA8059B0A46
:104FF000184326D3404149412404009A019B0D00E7
:105000005543641B4343E41A95B286B27543170CAB
:105010007E43030C5F4392B25A43B61802D3012277
:105020001204BF183204330C52197B4152429C4186
:10503000002C02D40022013051414008CA0710431D
:10504000490802B06246D7079210084BD218084BA5
:105050009A4203D212058918C919F0BD0020002A0E
:1050600001DC3900F0BD01331905F5E7FD0300004F
:10507000FE070000002200B5203200F010F8080002
:1050800000BD002200B500F00CF8CA179A4200D10A
:1050900000BDD8430121C907414000BD00220B15C6
:1050A0000AD410B5944600F0A7F81414013400DABD
:1050B0000021CB17144C2047002000217047624488
:1050C000343A0CD40C2A07DA040091409040524242
:1050D0002032D440214310BDD843D94310BD2032E3
:1050E00007D40C469440524220321141D040204314
:1050F00010BD0800C917203203D45242203210419B
:1051000010BD1800190010BDBF5000104A00520D0C
:10511000144BD21A13DDFF2A1EDAD205CB0FDB07A0
:105120001A43C300400F0903490A084310435B00B8
:1051300001D301D0013070474308FBD2704702D041
:10514000C80FC00770470A0312130132F8D1420F8B
:10515000072AF5D1012200E0FF22C80F00028018C3
:10516000C00570478003000000210A00002104E010
:1051700000210A00C11704E00022002306E0C04617
:105180000022CB1758405940C01A994130B5184CED
:10519000A21A002903D1010010D00020203A4C159A
:1051A00012D104D2013A001849414C0DFAD3114CE6
:1051B000A24204D212058918DB07C91830BDD243B8
:1051C000520D00200021F5E703D4013A00184941AF
:1051D000FBD50B324405C00A4D052843C90A6400BB
:1051E00003D0002460416141E1E7E0D34408F8E7DF
:1051F00032040000FE0700000A0DCC0F531E1B05F1
:10520000C91A520503D3C943404200D30131520D9C
:1052100003D0531CDB0A07D0121B00206400611C62
:1052200089078912803A1203014BD21A7047000095
:10523000FF030000023225D40C2A1CDA1125AD1A16
:105240000B002B41083207350600EE40904091409C
:105250003143F0CC63431A1500235A41554356435A
:105260005743BF02F412760576196741ED177F198F
:10527000801BB94170470C220020C9174900013139
:105280000905DBE70902030E1943000253422032ED
:1052900008D40C0019419440D840204300225041CA
:1052A000514170470800C917203B2032F1D500203A
:1052B0000021002270470000F0B5FFF79DFF54A4C5
:1052C000FFF7B8FF002904DA204C214D001969418D
:1052D000013A04B4012752A6002201239B0730CED5
:1052E000B446001BA9410BD47E4220361D003D412F
:1052F0001C00B4401600FE40344362416B4101E0A3
:105300000019694166460137212FE8D185B29EB266
:10531000754307147E43190C4F4384B24C43F11775
:1053200036190024614109047F183404310C6419D2
:105330007941A40F8800204389178018594104BC83
:1053400052423E32FFF71DFFF0BD00006BDE73F4EA
:10535000FD855C2CF0B54F0050D27F154ED0013743
:105360004FD0FFF749FF04B44902C20D1143400278
:1053700001272BA6B446002200237E4220360D00D2
:105380003D410C00B4400600FE40344344414D41D1
:10539000AE0F05D120002900664630CE121BAB416E
:1053A0000824A4440137212FE7D18900891012185D
:1053B0004B4180BC17A413CC0137784379437C431D
:1053C0004F05C912CD17C0196941A702A415CD1701
:1053D000C9196C41DD17801859416C413E22CD1727
:1053E000AC4208D000090E073043090926073143B3
:1053F0002411043AF3E7FFF7C4FEF0BD0249002090
:10540000F0BD02490020F0BD0000F0FF0000F07F79
:10541000AAB800006BDE1300A3EF0F0021170B00EA
:10542000F34B98BFEC23F319D6104DCDE3FB470E99
:105430007AB9BC8ADBC18907CC542C021846E10337
:10544000053083E7B029F8011E1FE0874505FE00FF
:10545000249E41ACA9807F008117624515E03F0082
:10546000E610ABA902F81F008858455500FE0F0052
:10547000C4AAA90A80FF070056455501E0FF0300B2
:10548000ABA92A00F8FF010045550500FEFF00000A
:10549000AAAA0080FF7F0000551500E0FF3F000032
:1054A000AB0200F8FF1F0000550000FEFF0F0000D8
:1054B0000B0080FFFF0700000100E0FFFF0300007A
:1054C0000000F8FFFF0100000000FEFFFF000000E9
:1054D0000080FFFF7F00000000E0FFFF3F000000B2
:1054E00000F8FFFF1F00000000FEFFFF0F0000009C
:1054F00080FFFFFF07000000E0FFFFFF0300000048
:10550000F8FFFFFF01000000FEFFFFFF00000000AA
:1055100000000080000000000000004000000000CB
:1055200051434343C9188C46110C83B24B4310B40A
:10553000040C614392B280B2504362431C041B0CC2
:10554000001910BC59411304120CC0185141614498
:10555000704700004840414048400E4B5B68184788
:105560000C4B1B6818470C4A936F9B0802D2094BDF
:10557000DB681847F0B5146E556E576F166FFFF75E
:10558000F6FF054A1466556657671667F0BD014B6E
:105590009B681847782C0020000000D007B54840D1
:1055A0004140484001E0C04607B54200120E03D01A
:1055B000FF2A03D1420218D8C00DC0054A00120EBE
:1055C00003D0FF2A03D14A020FD8C90DC905012211
:1055D000414005D4414001D5814207BD884207BD05
:1055E0000143491801D0C043001807BD00B5FFF7BB
:1055F000DBFF01D0002000BD012000BD00B5FFF79A
:10560000D3FF01D9002000BD012000BD01231B06EE
:105610004200D21804D84A00D21801D8002070479E
:1056200001207047C10FC90700D54042002817D09C
:10563000F44603B40B4B1B68984706BC81409E3868
:105640004042803107D20B0607D04900490AC00505
:105650001043084360470130F8E7490A8902F5E73B
:1056600070470000904E0020034BDB6FFC4618474C
:105670007CDF0D5700100000782C0020132310B59C
:1056800012481C78FEF78CFE0100012C0AD003DDC5
:1056900080220F4800F088F80E48FEF779FE0E4B86
:1056A000186010BD0A4C5422200000F07DF80B4B0E
:1056B0006365A365E36523666366A366E3662367A4
:1056C0006367A367E3672362E361E5E7534600008E
:1056D000782C00204C330000904E0020E156001042
:1056E00007B5604601880A0A0230DF2AFAD1C9B23A
:1056F000820804D3028840880004104300E0006858
:10570000014A5050039007BD782C0020C30FDB07DF
:1057100041000A0E07D0FF2A08D00909054A891856
:105720001943400770471900002070470249C91803
:10573000FAE70000000000380000F07F10B5040018
:1057400034F052FE002804D0034B04199C4200D8C8
:1057500010BD0248FDF7E6FA00000420E07C0410CA
:1057600010B50C0035F020FA002804D0034B0419C2
:105770009C4200D810BD0248FDF7D4FA0000042076
:10578000E07C041010B534F039FE10BD014804214E
:10579000014B1847401F0020B1430010014B1B680C
:1057A00018470000401F0020014B5B6818470000AD
:1057B000401F002010B5FFF7C1FF10BD10B5FFF767
:1057C000BDFF10BD10B5FFF7DDFF10BD10B5FFF731
:1057D000D9FF10BD10B5FFF7D5FF10BD030010B500
:1057E000080011001B68984710BDC046F0B546463A
:1057F0004F46D646C0B5437D80460E001700002BAD
:1058000046D0002A3FDD4B1E9946244B012500243B
:1058100000209A460DE04B461B5D0D3B5A4253411A
:10582000325DDBB20A2A0BD02B00013401359F42D6
:105830001ADD002CEFD14346325D1B7D0A2AF3D1DD
:10584000002BF1D1A04204DA4346211A1B6830181C
:105850009847434650461B68022198470134280068
:105860002B0001359F42E4DC874204DD4346391AB0
:105870001B6830189847F619013E33780D3B5A42A1
:10588000534142461375E0BCBA46B146A846F0BD46
:105890000368110030009847F5E7C046587D0410B2
:1058A000F0B5DE4657464E464546E0B585B0170092
:1058B0001C0006000D00FCF781FC0023304A121882
:1058C0004B41002B58DB2F4908008A4641F0F8FF76
:1058D00001906B1C03D1300036F058FC0500002C01
:1058E00025D1294B9846294B1C68002C15D0002F38
:1058F00020D1274F02E02469002C0ED02368002B12
:10590000F9D03B68002B01D0A342F4D120002A003B
:105910003100C0472469002CF0D1019B002B27D116
:1059200005B0F0BCBB46B246A946A046F0BD194B37
:105930009846D8E7164B994602ABDF1D0A239B46D3
:1059400002E02469002CE8D02368002BF9D04B46F4
:105950001B68002B01D0A342F3D12A0031002000A4
:10596000C0475B460122390020003B70C047E8E792
:10597000504641F025FFD3E70122074B5242A2E7F0
:1059800040420F00302A0020ED570010484A002006
:10599000544A0020DD570010FFFFFF7FF0B5CE46D0
:1059A000474680B583B06B460600DD1D2870FCF7C6
:1059B00005FC00231A4A12184B41002B2BDB194916
:1059C0000800884641F07CFF174B81461C68002C7C
:1059D00014D0164F02E02469002C0FD02368002B4E
:1059E000F9D03B68002B01D0A342F4D12000012262
:1059F0002900FFF7FBFE2469002CEFD14B46002B5A
:105A000005D1300003B0C0BCB946B046F0BD404639
:105A100041F0D6FEF5E70122054B5242CFE7C046E2
:105A200040420F00302A0020484A0020544A0020FB
:105A3000FFFFFF7F70B5040036F0A8FB00230100D4
:105A4000050001222000FFF72BFF084B1C68002CEB
:105A500006D06368002B05D098472469002CF8D144
:105A6000280070BD2469002CF3D1F9E7484A0020D2
:105A7000F0B54746D64680B516000F0083B0002823
:105A80002DD11C4B1C4D1A685B68019200931B4B77
:105A90009A461B4B984653461C68002C03D114E0D1
:105AA0002469002C11D02B68002B01D0A342F7D120
:105AB000A368002BF4D03100380098470028EFDDB0
:105AC00003B0C0BCBA46B046F0BD434600995B6A1D
:105AD000994209D842460198926A824202D3012033
